{
  "_format": "hh-sol-artifact-1",
  "contractName": "NFTMarketplace",
  "sourceName": "contracts/NFTMarketplace.sol",
  "abi": [
    {
      "inputs": [],
      "stateMutability": "nonpayable",
      "type": "constructor"
    },
    {
      "anonymous": false,
      "inputs": [
        {
          "indexed": true,
          "internalType": "address",
          "name": "owner",
          "type": "address"
        },
        {
          "indexed": true,
          "internalType": "address",
          "name": "approved",
          "type": "address"
        },
        {
          "indexed": true,
          "internalType": "uint256",
          "name": "tokenId",
          "type": "uint256"
        }
      ],
      "name": "Approval",
      "type": "event"
    },
    {
      "anonymous": false,
      "inputs": [
        {
          "indexed": true,
          "internalType": "address",
          "name": "owner",
          "type": "address"
        },
        {
          "indexed": true,
          "internalType": "address",
          "name": "operator",
          "type": "address"
        },
        {
          "indexed": false,
          "internalType": "bool",
          "name": "approved",
          "type": "bool"
        }
      ],
      "name": "ApprovalForAll",
      "type": "event"
    },
    {
      "anonymous": false,
      "inputs": [
        {
          "indexed": true,
          "internalType": "uint256",
          "name": "tokenId",
          "type": "uint256"
        },
        {
          "indexed": false,
          "internalType": "address",
          "name": "seller",
          "type": "address"
        },
        {
          "indexed": false,
          "internalType": "address",
          "name": "owner",
          "type": "address"
        },
        {
          "indexed": false,
          "internalType": "uint256",
          "name": "price",
          "type": "uint256"
        },
        {
          "indexed": false,
          "internalType": "bool",
          "name": "sold",
          "type": "bool"
        }
      ],
      "name": "MarketItemCreated",
      "type": "event"
    },
    {
      "anonymous": false,
      "inputs": [
        {
          "indexed": true,
          "internalType": "address",
          "name": "from",
          "type": "address"
        },
        {
          "indexed": true,
          "internalType": "address",
          "name": "to",
          "type": "address"
        },
        {
          "indexed": true,
          "internalType": "uint256",
          "name": "tokenId",
          "type": "uint256"
        }
      ],
      "name": "Transfer",
      "type": "event"
    },
    {
      "inputs": [
        {
          "internalType": "address",
          "name": "to",
          "type": "address"
        },
        {
          "internalType": "uint256",
          "name": "tokenId",
          "type": "uint256"
        }
      ],
      "name": "approve",
      "outputs": [],
      "stateMutability": "nonpayable",
      "type": "function"
    },
    {
      "inputs": [
        {
          "internalType": "address",
          "name": "owner",
          "type": "address"
        }
      ],
      "name": "balanceOf",
      "outputs": [
        {
          "internalType": "uint256",
          "name": "",
          "type": "uint256"
        }
      ],
      "stateMutability": "view",
      "type": "function"
    },
    {
      "inputs": [
        {
          "internalType": "uint256",
          "name": "tokenId",
          "type": "uint256"
        }
      ],
      "name": "createMarketSale",
      "outputs": [],
      "stateMutability": "payable",
      "type": "function"
    },
    {
      "inputs": [
        {
          "internalType": "string",
          "name": "tokenURI",
          "type": "string"
        },
        {
          "internalType": "uint256",
          "name": "price",
          "type": "uint256"
        }
      ],
      "name": "createToken",
      "outputs": [
        {
          "internalType": "uint256",
          "name": "",
          "type": "uint256"
        }
      ],
      "stateMutability": "payable",
      "type": "function"
    },
    {
      "inputs": [],
      "name": "fetchItemsListed",
      "outputs": [
        {
          "components": [
            {
              "internalType": "uint256",
              "name": "tokenId",
              "type": "uint256"
            },
            {
              "internalType": "address payable",
              "name": "seller",
              "type": "address"
            },
            {
              "internalType": "address payable",
              "name": "owner",
              "type": "address"
            },
            {
              "internalType": "uint256",
              "name": "price",
              "type": "uint256"
            },
            {
              "internalType": "bool",
              "name": "sold",
              "type": "bool"
            }
          ],
          "internalType": "struct NFTMarketplace.MarketItem[]",
          "name": "",
          "type": "tuple[]"
        }
      ],
      "stateMutability": "view",
      "type": "function"
    },
    {
      "inputs": [],
      "name": "fetchMarketItems",
      "outputs": [
        {
          "components": [
            {
              "internalType": "uint256",
              "name": "tokenId",
              "type": "uint256"
            },
            {
              "internalType": "address payable",
              "name": "seller",
              "type": "address"
            },
            {
              "internalType": "address payable",
              "name": "owner",
              "type": "address"
            },
            {
              "internalType": "uint256",
              "name": "price",
              "type": "uint256"
            },
            {
              "internalType": "bool",
              "name": "sold",
              "type": "bool"
            }
          ],
          "internalType": "struct NFTMarketplace.MarketItem[]",
          "name": "",
          "type": "tuple[]"
        }
      ],
      "stateMutability": "view",
      "type": "function"
    },
    {
      "inputs": [],
      "name": "fetchMyNFTs",
      "outputs": [
        {
          "components": [
            {
              "internalType": "uint256",
              "name": "tokenId",
              "type": "uint256"
            },
            {
              "internalType": "address payable",
              "name": "seller",
              "type": "address"
            },
            {
              "internalType": "address payable",
              "name": "owner",
              "type": "address"
            },
            {
              "internalType": "uint256",
              "name": "price",
              "type": "uint256"
            },
            {
              "internalType": "bool",
              "name": "sold",
              "type": "bool"
            }
          ],
          "internalType": "struct NFTMarketplace.MarketItem[]",
          "name": "",
          "type": "tuple[]"
        }
      ],
      "stateMutability": "view",
      "type": "function"
    },
    {
      "inputs": [
        {
          "internalType": "uint256",
          "name": "tokenId",
          "type": "uint256"
        }
      ],
      "name": "getApproved",
      "outputs": [
        {
          "internalType": "address",
          "name": "",
          "type": "address"
        }
      ],
      "stateMutability": "view",
      "type": "function"
    },
    {
      "inputs": [],
      "name": "getListingPrice",
      "outputs": [
        {
          "internalType": "uint256",
          "name": "",
          "type": "uint256"
        }
      ],
      "stateMutability": "view",
      "type": "function"
    },
    {
      "inputs": [
        {
          "internalType": "uint256",
          "name": "tokenId",
          "type": "uint256"
        }
      ],
      "name": "getSellerAndBuyerOfNFT",
      "outputs": [
        {
          "internalType": "address",
          "name": "",
          "type": "address"
        },
        {
          "internalType": "address",
          "name": "",
          "type": "address"
        }
      ],
      "stateMutability": "view",
      "type": "function"
    },
    {
      "inputs": [
        {
          "internalType": "address",
          "name": "owner",
          "type": "address"
        },
        {
          "internalType": "address",
          "name": "operator",
          "type": "address"
        }
      ],
      "name": "isApprovedForAll",
      "outputs": [
        {
          "internalType": "bool",
          "name": "",
          "type": "bool"
        }
      ],
      "stateMutability": "view",
      "type": "function"
    },
    {
      "inputs": [],
      "name": "name",
      "outputs": [
        {
          "internalType": "string",
          "name": "",
          "type": "string"
        }
      ],
      "stateMutability": "view",
      "type": "function"
    },
    {
      "inputs": [
        {
          "internalType": "uint256",
          "name": "tokenId",
          "type": "uint256"
        }
      ],
      "name": "ownerOf",
      "outputs": [
        {
          "internalType": "address",
          "name": "",
          "type": "address"
        }
      ],
      "stateMutability": "view",
      "type": "function"
    },
    {
      "inputs": [
        {
          "internalType": "uint256",
          "name": "tokenId",
          "type": "uint256"
        },
        {
          "internalType": "uint256",
          "name": "price",
          "type": "uint256"
        }
      ],
      "name": "resellToken",
      "outputs": [],
      "stateMutability": "payable",
      "type": "function"
    },
    {
      "inputs": [
        {
          "internalType": "address",
          "name": "from",
          "type": "address"
        },
        {
          "internalType": "address",
          "name": "to",
          "type": "address"
        },
        {
          "internalType": "uint256",
          "name": "tokenId",
          "type": "uint256"
        }
      ],
      "name": "safeTransferFrom",
      "outputs": [],
      "stateMutability": "nonpayable",
      "type": "function"
    },
    {
      "inputs": [
        {
          "internalType": "address",
          "name": "from",
          "type": "address"
        },
        {
          "internalType": "address",
          "name": "to",
          "type": "address"
        },
        {
          "internalType": "uint256",
          "name": "tokenId",
          "type": "uint256"
        },
        {
          "internalType": "bytes",
          "name": "data",
          "type": "bytes"
        }
      ],
      "name": "safeTransferFrom",
      "outputs": [],
      "stateMutability": "nonpayable",
      "type": "function"
    },
    {
      "inputs": [
        {
          "internalType": "address",
          "name": "operator",
          "type": "address"
        },
        {
          "internalType": "bool",
          "name": "approved",
          "type": "bool"
        }
      ],
      "name": "setApprovalForAll",
      "outputs": [],
      "stateMutability": "nonpayable",
      "type": "function"
    },
    {
      "inputs": [
        {
          "internalType": "bytes4",
          "name": "interfaceId",
          "type": "bytes4"
        }
      ],
      "name": "supportsInterface",
      "outputs": [
        {
          "internalType": "bool",
          "name": "",
          "type": "bool"
        }
      ],
      "stateMutability": "view",
      "type": "function"
    },
    {
      "inputs": [],
      "name": "symbol",
      "outputs": [
        {
          "internalType": "string",
          "name": "",
          "type": "string"
        }
      ],
      "stateMutability": "view",
      "type": "function"
    },
    {
      "inputs": [
        {
          "internalType": "uint256",
          "name": "tokenId",
          "type": "uint256"
        }
      ],
      "name": "tokenURI",
      "outputs": [
        {
          "internalType": "string",
          "name": "",
          "type": "string"
        }
      ],
      "stateMutability": "view",
      "type": "function"
    },
    {
      "inputs": [
        {
          "internalType": "address",
          "name": "from",
          "type": "address"
        },
        {
          "internalType": "address",
          "name": "to",
          "type": "address"
        },
        {
          "internalType": "uint256",
          "name": "tokenId",
          "type": "uint256"
        }
      ],
      "name": "transferFrom",
      "outputs": [],
      "stateMutability": "nonpayable",
      "type": "function"
    },
    {
      "inputs": [
        {
          "internalType": "uint256",
          "name": "_listingPrice",
          "type": "uint256"
        }
      ],
      "name": "updateListingPrice",
      "outputs": [],
      "stateMutability": "payable",
      "type": "function"
    }
  ],
  "bytecode": "0x60806040526658d15e176280006009553480156200001c57600080fd5b506040518060400160405280601081526020017f4d657461766572736520546f6b656e73000000000000000000000000000000008152506040518060400160405280600481526020017f4d4554540000000000000000000000000000000000000000000000000000000081525081600090816200009a919062000370565b508060019081620000ac919062000370565b50505033600a60006101000a81548173ffffffffffffffffffffffffffffffffffffffff021916908373ffffffffffffffffffffffffffffffffffffffff16021790555062000457565b600081519050919050565b7f4e487b7100000000000000000000000000000000000000000000000000000000600052604160045260246000fd5b7f4e487b7100000000000000000000000000000000000000000000000000000000600052602260045260246000fd5b600060028204905060018216806200017857607f821691505b6020821081036200018e576200018d62000130565b5b50919050565b60008190508160005260206000209050919050565b60006020601f8301049050919050565b600082821b905092915050565b600060088302620001f87fffffffffffffffffffffffffffffffffffffffffffffffffffffffffffffffff82620001b9565b620002048683620001b9565b95508019841693508086168417925050509392505050565b6000819050919050565b6000819050919050565b6000620002516200024b62000245846200021c565b62000226565b6200021c565b9050919050565b6000819050919050565b6200026d8362000230565b620002856200027c8262000258565b848454620001c6565b825550505050565b600090565b6200029c6200028d565b620002a981848462000262565b505050565b5b81811015620002d157620002c560008262000292565b600181019050620002af565b5050565b601f8211156200032057620002ea8162000194565b620002f584620001a9565b8101602085101562000305578190505b6200031d6200031485620001a9565b830182620002ae565b50505b505050565b600082821c905092915050565b6000620003456000198460080262000325565b1980831691505092915050565b600062000360838362000332565b9150826002028217905092915050565b6200037b82620000f6565b67ffffffffffffffff81111562000397576200039662000101565b5b620003a382546200015f565b620003b0828285620002d5565b600060209050601f831160018114620003e85760008415620003d3578287015190505b620003df858262000352565b8655506200044f565b601f198416620003f88662000194565b60005b828110156200042257848901518255600182019150602085019450602081019050620003fb565b868310156200044257848901516200043e601f89168262000332565b8355505b6001600288020188555050505b505050505050565b6143bc80620004676000396000f3fe6080604052600436106101355760003560e01c806370a08231116100ab578063ae677aa31161006f578063ae677aa314610442578063b88d4fde1461045e578063be9af53614610487578063c87b56dd146104a3578063e219fc75146104e0578063e985e9c5146104fc57610135565b806370a082311461034357806372b3b6201461038057806395d89b41146103b0578063a22cb465146103db578063a89c971c1461040457610135565b806312e85585116100fd57806312e8558514610233578063202e37401461025e57806323b872dd1461028957806342842e0e146102b257806345f8fa80146102db5780636352211e1461030657610135565b806301ffc9a71461013a57806306fdde0314610177578063081812fc146101a2578063095ea7b3146101df5780630f08efe014610208575b600080fd5b34801561014657600080fd5b50610161600480360381019061015c9190612b63565b610539565b60405161016e9190612bab565b60405180910390f35b34801561018357600080fd5b5061018c61061b565b6040516101999190612c56565b60405180910390f35b3480156101ae57600080fd5b506101c960048036038101906101c49190612cae565b6106ad565b6040516101d69190612d1c565b60405180910390f35b3480156101eb57600080fd5b5061020660048036038101906102019190612d63565b6106f3565b005b34801561021457600080fd5b5061021d61080a565b60405161022a9190612ef9565b60405180910390f35b34801561023f57600080fd5b50610248610a72565b6040516102559190612f2a565b60405180910390f35b34801561026a57600080fd5b50610273610a7c565b6040516102809190612ef9565b60405180910390f35b34801561029557600080fd5b506102b060048036038101906102ab9190612f45565b610d68565b005b3480156102be57600080fd5b506102d960048036038101906102d49190612f45565b610dc8565b005b3480156102e757600080fd5b506102f0610de8565b6040516102fd9190612ef9565b60405180910390f35b34801561031257600080fd5b5061032d60048036038101906103289190612cae565b6110d4565b60405161033a9190612d1c565b60405180910390f35b34801561034f57600080fd5b5061036a60048036038101906103659190612f98565b611185565b6040516103779190612f2a565b60405180910390f35b61039a600480360381019061039591906130fa565b61123c565b6040516103a79190612f2a565b60405180910390f35b3480156103bc57600080fd5b506103c561127e565b6040516103d29190612c56565b60405180910390f35b3480156103e757600080fd5b5061040260048036038101906103fd9190613182565b611310565b005b34801561041057600080fd5b5061042b60048036038101906104269190612cae565b611326565b6040516104399291906131c2565b60405180910390f35b61045c60048036038101906104579190612cae565b61143a565b005b34801561046a57600080fd5b506104856004803603810190610480919061328c565b611564565b005b6104a1600480360381019061049c9190612cae565b6115c6565b005b3480156104af57600080fd5b506104ca60048036038101906104c59190612cae565b6117fe565b6040516104d79190612c56565b60405180910390f35b6104fa60048036038101906104f5919061330f565b611910565b005b34801561050857600080fd5b50610523600480360381019061051e919061334f565b611b05565b6040516105309190612bab565b60405180910390f35b60007f80ac58cd000000000000000000000000000000000000000000000000000000007bffffffffffffffffffffffffffffffffffffffffffffffffffffffff1916827bffffffffffffffffffffffffffffffffffffffffffffffffffffffff1916148061060457507f5b5e139f000000000000000000000000000000000000000000000000000000007bffffffffffffffffffffffffffffffffffffffffffffffffffffffff1916827bffffffffffffffffffffffffffffffffffffffffffffffffffffffff1916145b80610614575061061382611b99565b5b9050919050565b60606000805461062a906133be565b80601f0160208091040260200160405190810160405280929190818152602001828054610656906133be565b80156106a35780601f10610678576101008083540402835291602001916106a3565b820191906000526020600020905b81548152906001019060200180831161068657829003601f168201915b5050505050905090565b60006106b882611c03565b6004600083815260200190815260200160002060009054906101000a900473ffffffffffffffffffffffffffffffffffffffff169050919050565b60006106fe826110d4565b90508073ffffffffffffffffffffffffffffffffffffffff168373ffffffffffffffffffffffffffffffffffffffff160361076e576040517f08c379a000000000000000000000000000000000000000000000000000000000815260040161076590613461565b60405180910390fd5b8073ffffffffffffffffffffffffffffffffffffffff1661078d611c4e565b73ffffffffffffffffffffffffffffffffffffffff1614806107bc57506107bb816107b6611c4e565b611b05565b5b6107fb576040517f08c379a00000000000000000000000000000000000000000000000000000000081526004016107f2906134f3565b60405180910390fd5b6108058383611c56565b505050565b606060006108186007611d0f565b905060006108266008611d0f565b6108306007611d0f565b61083a9190613542565b90506000808267ffffffffffffffff81111561085957610858612fcf565b5b60405190808252806020026020018201604052801561089257816020015b61087f612a9a565b8152602001906001900390816108775790505b50905060005b84811015610a67573073ffffffffffffffffffffffffffffffffffffffff16600b60006001846108c89190613576565b815260200190815260200160002060020160009054906101000a900473ffffffffffffffffffffffffffffffffffffffff1673ffffffffffffffffffffffffffffffffffffffff1603610a545760006001826109249190613576565b90506000600b60008381526020019081526020016000209050806040518060a0016040529081600082015481526020016001820160009054906101000a900473ffffffffffffffffffffffffffffffffffffffff1673ffffffffffffffffffffffffffffffffffffffff1673ffffffffffffffffffffffffffffffffffffffff1681526020016002820160009054906101000a900473ffffffffffffffffffffffffffffffffffffffff1673ffffffffffffffffffffffffffffffffffffffff1673ffffffffffffffffffffffffffffffffffffffff168152602001600382015481526020016004820160009054906101000a900460ff161515151581525050848681518110610a3757610a366135aa565b5b6020026020010181905250600185610a4f9190613576565b945050505b8080610a5f906135d9565b915050610898565b508094505050505090565b6000600954905090565b60606000610a8a6007611d0f565b905060008060005b83811015610b32573373ffffffffffffffffffffffffffffffffffffffff16600b6000600184610ac29190613576565b815260200190815260200160002060020160009054906101000a900473ffffffffffffffffffffffffffffffffffffffff1673ffffffffffffffffffffffffffffffffffffffff1603610b1f57600183610b1c9190613576565b92505b8080610b2a906135d9565b915050610a92565b5060008267ffffffffffffffff811115610b4f57610b4e612fcf565b5b604051908082528060200260200182016040528015610b8857816020015b610b75612a9a565b815260200190600190039081610b6d5790505b50905060005b84811015610d5d573373ffffffffffffffffffffffffffffffffffffffff16600b6000600184610bbe9190613576565b815260200190815260200160002060020160009054906101000a900473ffffffffffffffffffffffffffffffffffffffff1673ffffffffffffffffffffffffffffffffffffffff1603610d4a576000600182610c1a9190613576565b90506000600b60008381526020019081526020016000209050806040518060a0016040529081600082015481526020016001820160009054906101000a900473ffffffffffffffffffffffffffffffffffffffff1673ffffffffffffffffffffffffffffffffffffffff1673ffffffffffffffffffffffffffffffffffffffff1681526020016002820160009054906101000a900473ffffffffffffffffffffffffffffffffffffffff1673ffffffffffffffffffffffffffffffffffffffff1673ffffffffffffffffffffffffffffffffffffffff168152602001600382015481526020016004820160009054906101000a900460ff161515151581525050848681518110610d2d57610d2c6135aa565b5b6020026020010181905250600185610d459190613576565b945050505b8080610d55906135d9565b915050610b8e565b508094505050505090565b610d79610d73611c4e565b82611d1d565b610db8576040517f08c379a0000000000000000000000000000000000000000000000000000000008152600401610daf90613693565b60405180910390fd5b610dc3838383611db2565b505050565b610de383838360405180602001604052806000815250611564565b505050565b60606000610df66007611d0f565b905060008060005b83811015610e9e573373ffffffffffffffffffffffffffffffffffffffff16600b6000600184610e2e9190613576565b815260200190815260200160002060010160009054906101000a900473ffffffffffffffffffffffffffffffffffffffff1673ffffffffffffffffffffffffffffffffffffffff1603610e8b57600183610e889190613576565b92505b8080610e96906135d9565b915050610dfe565b5060008267ffffffffffffffff811115610ebb57610eba612fcf565b5b604051908082528060200260200182016040528015610ef457816020015b610ee1612a9a565b815260200190600190039081610ed95790505b50905060005b848110156110c9573373ffffffffffffffffffffffffffffffffffffffff16600b6000600184610f2a9190613576565b815260200190815260200160002060010160009054906101000a900473ffffffffffffffffffffffffffffffffffffffff1673ffffffffffffffffffffffffffffffffffffffff16036110b6576000600182610f869190613576565b90506000600b60008381526020019081526020016000209050806040518060a0016040529081600082015481526020016001820160009054906101000a900473ffffffffffffffffffffffffffffffffffffffff1673ffffffffffffffffffffffffffffffffffffffff1673ffffffffffffffffffffffffffffffffffffffff1681526020016002820160009054906101000a900473ffffffffffffffffffffffffffffffffffffffff1673ffffffffffffffffffffffffffffffffffffffff1673ffffffffffffffffffffffffffffffffffffffff168152602001600382015481526020016004820160009054906101000a900460ff161515151581525050848681518110611099576110986135aa565b5b60200260200101819052506001856110b19190613576565b945050505b80806110c1906135d9565b915050610efa565b508094505050505090565b6000806002600084815260200190815260200160002060009054906101000a900473ffffffffffffffffffffffffffffffffffffffff169050600073ffffffffffffffffffffffffffffffffffffffff168173ffffffffffffffffffffffffffffffffffffffff160361117c576040517f08c379a0000000000000000000000000000000000000000000000000000000008152600401611173906136ff565b60405180910390fd5b80915050919050565b60008073ffffffffffffffffffffffffffffffffffffffff168273ffffffffffffffffffffffffffffffffffffffff16036111f5576040517f08c379a00000000000000000000000000000000000000000000000000000000081526004016111ec90613791565b60405180910390fd5b600360008373ffffffffffffffffffffffffffffffffffffffff1673ffffffffffffffffffffffffffffffffffffffff168152602001908152602001600020549050919050565b60006112486007612018565b60006112546007611d0f565b9050611260338261202e565b61126a8185612207565b6112748184612274565b8091505092915050565b60606001805461128d906133be565b80601f01602080910402602001604051908101604052809291908181526020018280546112b9906133be565b80156113065780601f106112db57610100808354040283529160200191611306565b820191906000526020600020905b8154815290600101906020018083116112e957829003601f168201915b5050505050905090565b61132261131b611c4e565b8383612477565b5050565b6000806000600b60008581526020019081526020016000206040518060a0016040529081600082015481526020016001820160009054906101000a900473ffffffffffffffffffffffffffffffffffffffff1673ffffffffffffffffffffffffffffffffffffffff1673ffffffffffffffffffffffffffffffffffffffff1681526020016002820160009054906101000a900473ffffffffffffffffffffffffffffffffffffffff1673ffffffffffffffffffffffffffffffffffffffff1673ffffffffffffffffffffffffffffffffffffffff168152602001600382015481526020016004820160009054906101000a900460ff1615151515815250509050806020015181604001519250925050915091565b600a60009054906101000a900473ffffffffffffffffffffffffffffffffffffffff1673ffffffffffffffffffffffffffffffffffffffff163373ffffffffffffffffffffffffffffffffffffffff16146114ca576040517f08c379a00000000000000000000000000000000000000000000000000000000081526004016114c190613823565b60405180910390fd5b3373ffffffffffffffffffffffffffffffffffffffff16600a60009054906101000a900473ffffffffffffffffffffffffffffffffffffffff1673ffffffffffffffffffffffffffffffffffffffff161461155a576040517f08c379a0000000000000000000000000000000000000000000000000000000008152600401611551906138b5565b60405180910390fd5b8060098190555050565b61157561156f611c4e565b83611d1d565b6115b4576040517f08c379a00000000000000000000000000000000000000000000000000000000081526004016115ab90613693565b60405180910390fd5b6115c0848484846125e3565b50505050565b6000600b6000838152602001908152602001600020600301549050803414611623576040517f08c379a000000000000000000000000000000000000000000000000000000000815260040161161a90613947565b60405180910390fd5b33600b600084815260200190815260200160002060020160006101000a81548173ffffffffffffffffffffffffffffffffffffffff021916908373ffffffffffffffffffffffffffffffffffffffff1602179055506001600b600084815260200190815260200160002060040160006101000a81548160ff0219169083151502179055506000600b600084815260200190815260200160002060010160006101000a81548173ffffffffffffffffffffffffffffffffffffffff021916908373ffffffffffffffffffffffffffffffffffffffff1602179055506117076008612018565b611712303384611db2565b600a60009054906101000a900473ffffffffffffffffffffffffffffffffffffffff1673ffffffffffffffffffffffffffffffffffffffff166108fc6009549081150290604051600060405180830381858888f1935050505015801561177c573d6000803e3d6000fd5b50600b600083815260200190815260200160002060010160009054906101000a900473ffffffffffffffffffffffffffffffffffffffff1673ffffffffffffffffffffffffffffffffffffffff166108fc349081150290604051600060405180830381858888f193505050501580156117f9573d6000803e3d6000fd5b505050565b606061180982611c03565b6000600660008481526020019081526020016000208054611829906133be565b80601f0160208091040260200160405190810160405280929190818152602001828054611855906133be565b80156118a25780601f10611877576101008083540402835291602001916118a2565b820191906000526020600020905b81548152906001019060200180831161188557829003601f168201915b5050505050905060006118b361263f565b905060008151036118c857819250505061190b565b6000825111156118fd5780826040516020016118e59291906139a3565b6040516020818303038152906040529250505061190b565b61190684612656565b925050505b919050565b3373ffffffffffffffffffffffffffffffffffffffff16600b600084815260200190815260200160002060020160009054906101000a900473ffffffffffffffffffffffffffffffffffffffff1673ffffffffffffffffffffffffffffffffffffffff16146119b4576040517f08c379a00000000000000000000000000000000000000000000000000000000081526004016119ab90613a39565b60405180910390fd5b60095434146119f8576040517f08c379a00000000000000000000000000000000000000000000000000000000081526004016119ef90613acb565b60405180910390fd5b6000600b600084815260200190815260200160002060040160006101000a81548160ff02191690831515021790555080600b60008481526020019081526020016000206003018190555033600b600084815260200190815260200160002060010160006101000a81548173ffffffffffffffffffffffffffffffffffffffff021916908373ffffffffffffffffffffffffffffffffffffffff16021790555030600b600084815260200190815260200160002060020160006101000a81548173ffffffffffffffffffffffffffffffffffffffff021916908373ffffffffffffffffffffffffffffffffffffffff160217905550611af660086126be565b611b01333084611db2565b5050565b6000600560008473ffffffffffffffffffffffffffffffffffffffff1673ffffffffffffffffffffffffffffffffffffffff16815260200190815260200160002060008373ffffffffffffffffffffffffffffffffffffffff1673ffffffffffffffffffffffffffffffffffffffff16815260200190815260200160002060009054906101000a900460ff16905092915050565b60007f01ffc9a7000000000000000000000000000000000000000000000000000000007bffffffffffffffffffffffffffffffffffffffffffffffffffffffff1916827bffffffffffffffffffffffffffffffffffffffffffffffffffffffff1916149050919050565b611c0c8161271a565b611c4b576040517f08c379a0000000000000000000000000000000000000000000000000000000008152600401611c42906136ff565b60405180910390fd5b50565b600033905090565b816004600083815260200190815260200160002060006101000a81548173ffffffffffffffffffffffffffffffffffffffff021916908373ffffffffffffffffffffffffffffffffffffffff160217905550808273ffffffffffffffffffffffffffffffffffffffff16611cc9836110d4565b73ffffffffffffffffffffffffffffffffffffffff167f8c5be1e5ebec7d5bd14f71427d1e84f3dd0314c0f7b2291e5b200ac8c7c3b92560405160405180910390a45050565b600081600001549050919050565b600080611d29836110d4565b90508073ffffffffffffffffffffffffffffffffffffffff168473ffffffffffffffffffffffffffffffffffffffff161480611d6b5750611d6a8185611b05565b5b80611da957508373ffffffffffffffffffffffffffffffffffffffff16611d91846106ad565b73ffffffffffffffffffffffffffffffffffffffff16145b91505092915050565b8273ffffffffffffffffffffffffffffffffffffffff16611dd2826110d4565b73ffffffffffffffffffffffffffffffffffffffff1614611e28576040517f08c379a0000000000000000000000000000000000000000000000000000000008152600401611e1f90613b5d565b60405180910390fd5b600073ffffffffffffffffffffffffffffffffffffffff168273ffffffffffffffffffffffffffffffffffffffff1603611e97576040517f08c379a0000000000000000000000000000000000000000000000000000000008152600401611e8e90613bef565b60405180910390fd5b611ea2838383612786565b611ead600082611c56565b6001600360008573ffffffffffffffffffffffffffffffffffffffff1673ffffffffffffffffffffffffffffffffffffffff1681526020019081526020016000206000828254611efd9190613542565b925050819055506001600360008473ffffffffffffffffffffffffffffffffffffffff1673ffffffffffffffffffffffffffffffffffffffff1681526020019081526020016000206000828254611f549190613576565b92505081905550816002600083815260200190815260200160002060006101000a81548173ffffffffffffffffffffffffffffffffffffffff021916908373ffffffffffffffffffffffffffffffffffffffff160217905550808273ffffffffffffffffffffffffffffffffffffffff168473ffffffffffffffffffffffffffffffffffffffff167fddf252ad1be2c89b69c2b068fc378daa952ba7f163c4a11628f55a4df523b3ef60405160405180910390a461201383838361278b565b505050565b6001816000016000828254019250508190555050565b600073ffffffffffffffffffffffffffffffffffffffff168273ffffffffffffffffffffffffffffffffffffffff160361209d576040517f08c379a000000000000000000000000000000000000000000000000000000000815260040161209490613c5b565b60405180910390fd5b6120a68161271a565b156120e6576040517f08c379a00000000000000000000000000000000000000000000000000000000081526004016120dd90613cc7565b60405180910390fd5b6120f260008383612786565b6001600360008473ffffffffffffffffffffffffffffffffffffffff1673ffffffffffffffffffffffffffffffffffffffff16815260200190815260200160002060008282546121429190613576565b92505081905550816002600083815260200190815260200160002060006101000a81548173ffffffffffffffffffffffffffffffffffffffff021916908373ffffffffffffffffffffffffffffffffffffffff160217905550808273ffffffffffffffffffffffffffffffffffffffff16600073ffffffffffffffffffffffffffffffffffffffff167fddf252ad1be2c89b69c2b068fc378daa952ba7f163c4a11628f55a4df523b3ef60405160405180910390a46122036000838361278b565b5050565b6122108261271a565b61224f576040517f08c379a000000000000000000000000000000000000000000000000000000000815260040161224690613d59565b60405180910390fd5b8060066000848152602001908152602001600020908161226f9190613f25565b505050565b600081116122b7576040517f08c379a00000000000000000000000000000000000000000000000000000000081526004016122ae90614043565b60405180910390fd5b60095434146122fb576040517f08c379a00000000000000000000000000000000000000000000000000000000081526004016122f290613acb565b60405180910390fd5b6040518060a001604052808381526020013373ffffffffffffffffffffffffffffffffffffffff1681526020013073ffffffffffffffffffffffffffffffffffffffff16815260200182815260200160001515815250600b60008481526020019081526020016000206000820151816000015560208201518160010160006101000a81548173ffffffffffffffffffffffffffffffffffffffff021916908373ffffffffffffffffffffffffffffffffffffffff16021790555060408201518160020160006101000a81548173ffffffffffffffffffffffffffffffffffffffff021916908373ffffffffffffffffffffffffffffffffffffffff1602179055506060820151816003015560808201518160040160006101000a81548160ff021916908315150217905550905050612434333084611db2565b817fb640004f1d14576d0c209e240cad0410e0d8c0c33a09375861fbadae2588a98d333084600060405161246b9493929190614063565b60405180910390a25050565b8173ffffffffffffffffffffffffffffffffffffffff168373ffffffffffffffffffffffffffffffffffffffff16036124e5576040517f08c379a00000000000000000000000000000000000000000000000000000000081526004016124dc906140f4565b60405180910390fd5b80600560008573ffffffffffffffffffffffffffffffffffffffff1673ffffffffffffffffffffffffffffffffffffffff16815260200190815260200160002060008473ffffffffffffffffffffffffffffffffffffffff1673ffffffffffffffffffffffffffffffffffffffff16815260200190815260200160002060006101000a81548160ff0219169083151502179055508173ffffffffffffffffffffffffffffffffffffffff168373ffffffffffffffffffffffffffffffffffffffff167f17307eab39ab6107e8899845ad3d59bd9653f200f220920489ca2b5937696c31836040516125d69190612bab565b60405180910390a3505050565b6125ee848484611db2565b6125fa84848484612790565b612639576040517f08c379a000000000000000000000000000000000000000000000000000000000815260040161263090614186565b60405180910390fd5b50505050565b606060405180602001604052806000815250905090565b606061266182611c03565b600061266b61263f565b9050600081511161268b57604051806020016040528060008152506126b6565b8061269584612917565b6040516020016126a69291906139a3565b6040516020818303038152906040525b915050919050565b6000816000015490506000811161270a576040517f08c379a0000000000000000000000000000000000000000000000000000000008152600401612701906141f2565b60405180910390fd5b6001810382600001819055505050565b60008073ffffffffffffffffffffffffffffffffffffffff166002600084815260200190815260200160002060009054906101000a900473ffffffffffffffffffffffffffffffffffffffff1673ffffffffffffffffffffffffffffffffffffffff1614159050919050565b505050565b505050565b60006127b18473ffffffffffffffffffffffffffffffffffffffff16612a77565b1561290a578373ffffffffffffffffffffffffffffffffffffffff1663150b7a026127da611c4e565b8786866040518563ffffffff1660e01b81526004016127fc9493929190614267565b6020604051808303816000875af192505050801561283857506040513d601f19601f8201168201806040525081019061283591906142c8565b60015b6128ba573d8060008114612868576040519150601f19603f3d011682016040523d82523d6000602084013e61286d565b606091505b5060008151036128b2576040517f08c379a00000000000000000000000000000000000000000000000000000000081526004016128a990614186565b60405180910390fd5b805181602001fd5b63150b7a0260e01b7bffffffffffffffffffffffffffffffffffffffffffffffffffffffff1916817bffffffffffffffffffffffffffffffffffffffffffffffffffffffff19161491505061290f565b600190505b949350505050565b60606000820361295e576040518060400160405280600181526020017f30000000000000000000000000000000000000000000000000000000000000008152509050612a72565b600082905060005b60008214612990578080612979906135d9565b915050600a826129899190614324565b9150612966565b60008167ffffffffffffffff8111156129ac576129ab612fcf565b5b6040519080825280601f01601f1916602001820160405280156129de5781602001600182028036833780820191505090505b5090505b60008514612a6b576001826129f79190613542565b9150600a85612a069190614355565b6030612a129190613576565b60f81b818381518110612a2857612a276135aa565b5b60200101907effffffffffffffffffffffffffffffffffffffffffffffffffffffffffffff1916908160001a905350600a85612a649190614324565b94506129e2565b8093505050505b919050565b6000808273ffffffffffffffffffffffffffffffffffffffff163b119050919050565b6040518060a0016040528060008152602001600073ffffffffffffffffffffffffffffffffffffffff168152602001600073ffffffffffffffffffffffffffffffffffffffff168152602001600081526020016000151581525090565b6000604051905090565b600080fd5b600080fd5b60007fffffffff0000000000000000000000000000000000000000000000000000000082169050919050565b612b4081612b0b565b8114612b4b57600080fd5b50565b600081359050612b5d81612b37565b92915050565b600060208284031215612b7957612b78612b01565b5b6000612b8784828501612b4e565b91505092915050565b60008115159050919050565b612ba581612b90565b82525050565b6000602082019050612bc06000830184612b9c565b92915050565b600081519050919050565b600082825260208201905092915050565b60005b83811015612c00578082015181840152602081019050612be5565b60008484015250505050565b6000601f19601f8301169050919050565b6000612c2882612bc6565b612c328185612bd1565b9350612c42818560208601612be2565b612c4b81612c0c565b840191505092915050565b60006020820190508181036000830152612c708184612c1d565b905092915050565b6000819050919050565b612c8b81612c78565b8114612c9657600080fd5b50565b600081359050612ca881612c82565b92915050565b600060208284031215612cc457612cc3612b01565b5b6000612cd284828501612c99565b91505092915050565b600073ffffffffffffffffffffffffffffffffffffffff82169050919050565b6000612d0682612cdb565b9050919050565b612d1681612cfb565b82525050565b6000602082019050612d316000830184612d0d565b92915050565b612d4081612cfb565b8114612d4b57600080fd5b50565b600081359050612d5d81612d37565b92915050565b60008060408385031215612d7a57612d79612b01565b5b6000612d8885828601612d4e565b9250506020612d9985828601612c99565b9150509250929050565b600081519050919050565b600082825260208201905092915050565b6000819050602082019050919050565b612dd881612c78565b82525050565b6000612de982612cdb565b9050919050565b612df981612dde565b82525050565b612e0881612b90565b82525050565b60a082016000820151612e246000850182612dcf565b506020820151612e376020850182612df0565b506040820151612e4a6040850182612df0565b506060820151612e5d6060850182612dcf565b506080820151612e706080850182612dff565b50505050565b6000612e828383612e0e565b60a08301905092915050565b6000602082019050919050565b6000612ea682612da3565b612eb08185612dae565b9350612ebb83612dbf565b8060005b83811015612eec578151612ed38882612e76565b9750612ede83612e8e565b925050600181019050612ebf565b5085935050505092915050565b60006020820190508181036000830152612f138184612e9b565b905092915050565b612f2481612c78565b82525050565b6000602082019050612f3f6000830184612f1b565b92915050565b600080600060608486031215612f5e57612f5d612b01565b5b6000612f6c86828701612d4e565b9350506020612f7d86828701612d4e565b9250506040612f8e86828701612c99565b9150509250925092565b600060208284031215612fae57612fad612b01565b5b6000612fbc84828501612d4e565b91505092915050565b600080fd5b600080fd5b7f4e487b7100000000000000000000000000000000000000000000000000000000600052604160045260246000fd5b61300782612c0c565b810181811067ffffffffffffffff8211171561302657613025612fcf565b5b80604052505050565b6000613039612af7565b90506130458282612ffe565b919050565b600067ffffffffffffffff82111561306557613064612fcf565b5b61306e82612c0c565b9050602081019050919050565b82818337600083830152505050565b600061309d6130988461304a565b61302f565b9050828152602081018484840111156130b9576130b8612fca565b5b6130c484828561307b565b509392505050565b600082601f8301126130e1576130e0612fc5565b5b81356130f184826020860161308a565b91505092915050565b6000806040838503121561311157613110612b01565b5b600083013567ffffffffffffffff81111561312f5761312e612b06565b5b61313b858286016130cc565b925050602061314c85828601612c99565b9150509250929050565b61315f81612b90565b811461316a57600080fd5b50565b60008135905061317c81613156565b92915050565b6000806040838503121561319957613198612b01565b5b60006131a785828601612d4e565b92505060206131b88582860161316d565b9150509250929050565b60006040820190506131d76000830185612d0d565b6131e46020830184612d0d565b9392505050565b600067ffffffffffffffff82111561320657613205612fcf565b5b61320f82612c0c565b9050602081019050919050565b600061322f61322a846131eb565b61302f565b90508281526020810184848401111561324b5761324a612fca565b5b61325684828561307b565b509392505050565b600082601f83011261327357613272612fc5565b5b813561328384826020860161321c565b91505092915050565b600080600080608085870312156132a6576132a5612b01565b5b60006132b487828801612d4e565b94505060206132c587828801612d4e565b93505060406132d687828801612c99565b925050606085013567ffffffffffffffff8111156132f7576132f6612b06565b5b6133038782880161325e565b91505092959194509250565b6000806040838503121561332657613325612b01565b5b600061333485828601612c99565b925050602061334585828601612c99565b9150509250929050565b6000806040838503121561336657613365612b01565b5b600061337485828601612d4e565b925050602061338585828601612d4e565b9150509250929050565b7f4e487b7100000000000000000000000000000000000000000000000000000000600052602260045260246000fd5b600060028204905060018216806133d657607f821691505b6020821081036133e9576133e861338f565b5b50919050565b7f4552433732313a20617070726f76616c20746f2063757272656e74206f776e6560008201527f7200000000000000000000000000000000000000000000000000000000000000602082015250565b600061344b602183612bd1565b9150613456826133ef565b604082019050919050565b6000602082019050818103600083015261347a8161343e565b9050919050565b7f4552433732313a20617070726f76652063616c6c6572206973206e6f7420746f60008201527f6b656e206f776e6572206e6f7220617070726f76656420666f7220616c6c0000602082015250565b60006134dd603e83612bd1565b91506134e882613481565b604082019050919050565b6000602082019050818103600083015261350c816134d0565b9050919050565b7f4e487b7100000000000000000000000000000000000000000000000000000000600052601160045260246000fd5b600061354d82612c78565b915061355883612c78565b92508282039050818111156135705761356f613513565b5b92915050565b600061358182612c78565b915061358c83612c78565b92508282019050808211156135a4576135a3613513565b5b92915050565b7f4e487b7100000000000000000000000000000000000000000000000000000000600052603260045260246000fd5b60006135e482612c78565b91507fffffffffffffffffffffffffffffffffffffffffffffffffffffffffffffffff820361361657613615613513565b5b600182019050919050565b7f4552433732313a2063616c6c6572206973206e6f7420746f6b656e206f776e6560008201527f72206e6f7220617070726f766564000000000000000000000000000000000000602082015250565b600061367d602e83612bd1565b915061368882613621565b604082019050919050565b600060208201905081810360008301526136ac81613670565b9050919050565b7f4552433732313a20696e76616c696420746f6b656e2049440000000000000000600082015250565b60006136e9601883612bd1565b91506136f4826136b3565b602082019050919050565b60006020820190508181036000830152613718816136dc565b9050919050565b7f4552433732313a2061646472657373207a65726f206973206e6f74206120766160008201527f6c6964206f776e65720000000000000000000000000000000000000000000000602082015250565b600061377b602983612bd1565b91506137868261371f565b604082019050919050565b600060208201905081810360008301526137aa8161376e565b9050919050565b7f6f6e6c79206f776e6572206f6620746865206d61726b6574706c61636520636160008201527f6e206368616e676520746865206c697374696e67207072696365000000000000602082015250565b600061380d603a83612bd1565b9150613818826137b1565b604082019050919050565b6000602082019050818103600083015261383c81613800565b9050919050565b7f4f6e6c79206d61726b6574706c616365206f776e65722063616e20757064617460008201527f65206c697374696e672070726963652e00000000000000000000000000000000602082015250565b600061389f603083612bd1565b91506138aa82613843565b604082019050919050565b600060208201905081810360008301526138ce81613892565b9050919050565b7f506c65617365207375626d6974207468652061736b696e67207072696365206960008201527f6e206f7264657220746f20636f6d706c65746520746865207075726368617365602082015250565b6000613931604083612bd1565b915061393c826138d5565b604082019050919050565b6000602082019050818103600083015261396081613924565b9050919050565b600081905092915050565b600061397d82612bc6565b6139878185613967565b9350613997818560208601612be2565b80840191505092915050565b60006139af8285613972565b91506139bb8284613972565b91508190509392505050565b7f4f6e6c79206974656d206f776e65722063616e20706572666f726d207468697360008201527f206f7065726174696f6e00000000000000000000000000000000000000000000602082015250565b6000613a23602a83612bd1565b9150613a2e826139c7565b604082019050919050565b60006020820190508181036000830152613a5281613a16565b9050919050565b7f5072696365206d75737420626520657175616c20746f206c697374696e67207060008201527f7269636500000000000000000000000000000000000000000000000000000000602082015250565b6000613ab5602483612bd1565b9150613ac082613a59565b604082019050919050565b60006020820190508181036000830152613ae481613aa8565b9050919050565b7f4552433732313a207472616e736665722066726f6d20696e636f72726563742060008201527f6f776e6572000000000000000000000000000000000000000000000000000000602082015250565b6000613b47602583612bd1565b9150613b5282613aeb565b604082019050919050565b60006020820190508181036000830152613b7681613b3a565b9050919050565b7f4552433732313a207472616e7366657220746f20746865207a65726f2061646460008201527f7265737300000000000000000000000000000000000000000000000000000000602082015250565b6000613bd9602483612bd1565b9150613be482613b7d565b604082019050919050565b60006020820190508181036000830152613c0881613bcc565b9050919050565b7f4552433732313a206d696e7420746f20746865207a65726f2061646472657373600082015250565b6000613c45602083612bd1565b9150613c5082613c0f565b602082019050919050565b60006020820190508181036000830152613c7481613c38565b9050919050565b7f4552433732313a20746f6b656e20616c7265616479206d696e74656400000000600082015250565b6000613cb1601c83612bd1565b9150613cbc82613c7b565b602082019050919050565b60006020820190508181036000830152613ce081613ca4565b9050919050565b7f45524337323155524953746f726167653a2055524920736574206f66206e6f6e60008201527f6578697374656e7420746f6b656e000000000000000000000000000000000000602082015250565b6000613d43602e83612bd1565b9150613d4e82613ce7565b604082019050919050565b60006020820190508181036000830152613d7281613d36565b9050919050565b60008190508160005260206000209050919050565b60006020601f8301049050919050565b600082821b905092915050565b600060088302613ddb7fffffffffffffffffffffffffffffffffffffffffffffffffffffffffffffffff82613d9e565b613de58683613d9e565b95508019841693508086168417925050509392505050565b6000819050919050565b6000613e22613e1d613e1884612c78565b613dfd565b612c78565b9050919050565b6000819050919050565b613e3c83613e07565b613e50613e4882613e29565b848454613dab565b825550505050565b600090565b613e65613e58565b613e70818484613e33565b505050565b5b81811015613e9457613e89600082613e5d565b600181019050613e76565b5050565b601f821115613ed957613eaa81613d79565b613eb384613d8e565b81016020851015613ec2578190505b613ed6613ece85613d8e565b830182613e75565b50505b505050565b600082821c905092915050565b6000613efc60001984600802613ede565b1980831691505092915050565b6000613f158383613eeb565b9150826002028217905092915050565b613f2e82612bc6565b67ffffffffffffffff811115613f4757613f46612fcf565b5b613f5182546133be565b613f5c828285613e98565b600060209050601f831160018114613f8f5760008415613f7d578287015190505b613f878582613f09565b865550613fef565b601f198416613f9d86613d79565b60005b82811015613fc557848901518255600182019150602085019450602081019050613fa0565b86831015613fe25784890151613fde601f891682613eeb565b8355505b6001600288020188555050505b505050505050565b7f5072696365206d757374206265206174206c6561737420312077656900000000600082015250565b600061402d601c83612bd1565b915061403882613ff7565b602082019050919050565b6000602082019050818103600083015261405c81614020565b9050919050565b60006080820190506140786000830187612d0d565b6140856020830186612d0d565b6140926040830185612f1b565b61409f6060830184612b9c565b95945050505050565b7f4552433732313a20617070726f766520746f2063616c6c657200000000000000600082015250565b60006140de601983612bd1565b91506140e9826140a8565b602082019050919050565b6000602082019050818103600083015261410d816140d1565b9050919050565b7f4552433732313a207472616e7366657220746f206e6f6e20455243373231526560008201527f63656976657220696d706c656d656e7465720000000000000000000000000000602082015250565b6000614170603283612bd1565b915061417b82614114565b604082019050919050565b6000602082019050818103600083015261419f81614163565b9050919050565b7f436f756e7465723a2064656372656d656e74206f766572666c6f770000000000600082015250565b60006141dc601b83612bd1565b91506141e7826141a6565b602082019050919050565b6000602082019050818103600083015261420b816141cf565b9050919050565b600081519050919050565b600082825260208201905092915050565b600061423982614212565b614243818561421d565b9350614253818560208601612be2565b61425c81612c0c565b840191505092915050565b600060808201905061427c6000830187612d0d565b6142896020830186612d0d565b6142966040830185612f1b565b81810360608301526142a8818461422e565b905095945050505050565b6000815190506142c281612b37565b92915050565b6000602082840312156142de576142dd612b01565b5b60006142ec848285016142b3565b91505092915050565b7f4e487b7100000000000000000000000000000000000000000000000000000000600052601260045260246000fd5b600061432f82612c78565b915061433a83612c78565b92508261434a576143496142f5565b5b828204905092915050565b600061436082612c78565b915061436b83612c78565b92508261437b5761437a6142f5565b5b82820690509291505056fea2646970667358221220fbf6e83bfe1492a226406267971c402140e25f874c17effde025f4eee68451ff64736f6c63430008110033",
  "linkReferences": {},
  "deployedLinkReferences": {}
}